:100000000C942A000C9434000C9434000C943400AA
:100010000C9434000C9434000C9434000C94340090
:100020000C9434000C9434000C9434000C94340080
:100030000C9434000C9434000C9436000C9434006E
:100040000C9434000C9434000C9434000C94340060
:100050000C94340011241FBECFE5D4E0DEBFCDBF29
:100060000E944A000C9451000C9400001F920F92C1
:100070000FB60F9211248F9385B1809588BB8F9115
:100080000F900FBE0F901F90189586E687B989E8EC
:1000900086B908958FEF87BB0E9445007894369A01
:0600A000FECFF894FFCF33
:00000001FF
