:100000000C942A000C943F000C943F000C943F0089
:100010000C943F000C943F000C943F000C943F0064
:100020000C943F000C943F000C943F000C943F0054
:100030000C943F000C943F000C943F000C943F0044
:100040000C943F000C943F000C943F000C943F0034
:100050000C943F0011241FBECFE5D4E0DEBFCDBF1E
:1000600010E0A0E6B0E0EEE3F1E002C005900D92F2
:10007000A037B107D9F70E9490000C949D000C9412
:10008000000086E880BD1BB883E389B910BC88E115
:100090008AB908955F9BFECF8CB10895863359F1DC
:1000A00078F4823301F140F48033C9F0D0F4833224
:1000B000A1F18A32A1F52FC08433C9F0D0F415C064
:1000C000813409F130F48833D1F0B8F0893339F54F
:1000D00018C08334E1F0C8F0843409F51AC080E414
:1000E0001DC089E71BC084E219C080E317C089E105
:1000F00015C082E113C082E011C088E70FC018BAB2
:10010000089580E10BC088E009C083E007C086E461
:1001100005C081E203C083E201C08FE088BB08957F
:100120000E94410080EF8ABB8FEF8BBB87BB18BA60
:0E0130000E944A000E944E00FBCFF894FFCFC1
:10013E003132334134353642373839432A3023444D
:00000001FF
