:100000000C9430000C944D000C944D000C944D0059
:100010000C944D000C944D000C944D000C944D002C
:100020000C944D000C944D000C944D000C944D001C
:100030000C944D000C944D000C944D000C944D000C
:100040000C944D000C944D000C944D000C944D00FC
:100050000C944D006364696E6F70737578585B0023
:1000600011241FBECFE5D4E0DEBFCDBF10E0A0E677
:10007000B0E0E4E1F9E102C005900D92AE3EB107B7
:10008000D9F710E0AEEEB0E001C01D92A83FB10775
:10009000E1F70E9429040C94880C0C940000A0E263
:1000A000B0E0E5E5F0E00C949A046D8F7E8F8F8FC1
:1000B00098A3298F3A8F4B8F5C8FBE016F5E7F4F65
:1000C000CE014D960E944C03BE01675F7F4FCE016B
:1000D00049960E944C039989923008F412C0898590
:1000E000823008F41AC0943021F4823009F4B4C08C
:1000F00008C0843021F4923009F4AEC00EC09230B2
:1001000051F481E02A899A85291301C080E08A8B05
:10011000CE014196A3C0823051F481E02A899A85AC
:10012000291301C080E08A87CE01099697C08D8887
:100130009E88AF88B88C0D851E852F853889E0E2B2
:10014000F0E080E090E0DC01C12CD12C760140E0B1
:1001500050E0BA0180FE18C0400F511F621F731F8C
:100160008C0D9D1DAE1DBF1D412C512C32014394A1
:10017000401751076207730718F0412C512C3201C8
:10018000840D951DA61DB71DCC0CDD1CEE1CFF1C9F
:1001900037FF02C06894C0F8000F111F221F331FE1
:1001A000B694A794979487943197A1F62B893C89AC
:1001B000EB85FC852E0F3F1F2E5F3F4F3C832B832B
:1001C00021E0EA893A85E31301C020E02A83EB812C
:1001D000FC810CC080FF05C07695679557954795C3
:1001E0007068B695A795979587953196B7FDF2CF2C
:1001F0009F010CC0880F991FAA1FBB1F77FD81604C
:10020000440F551F661F771F215031090097A10524
:10021000E0E4BE0778F32B833C838C019D010F77CC
:10022000112722273327003411052105310559F400
:1002300087FD09C0452B462B472B29F0805C9F4F3B
:10024000AF4FBF4F80788D839E83AF83B88783E0A5
:100250008983CE01019602C086E690E00E94820268
:10026000A096E0E10C94B604A8E1B0E0EAE3F1E086
:100270000C94A2046D8B7E8B8F8B988F298B3A8B7D
:100280004B8B5C8BBE01675F7F4FCE0145960E9412
:100290004C03BE016F5F7F4FCE0141960E944C031D
:1002A0009985923008F475C08981823008F474C051
:1002B0002A853A8123272A87943011F0923019F445
:1002C000981367C06CC0843039F41D861E861F8663
:1002D000188A1C861B8604C0823029F484E0898732
:1002E000CE0109965EC08B859C852B813C81821B4B
:1002F000930B9C878B874D855E856F857889CD8034
:10030000DE80EF80F8844C155D056E057F0538F4BE
:10031000440F551F661F771F01979C878B87EFE15E
:10032000F0E000E010E020E030E480E090E0DC016C
:100330004C155D056E057F0540F0802B912BA22B9F
:10034000B32B4C195D096E097F09369527951795D2
:100350000795440F551F661F771F319749F78C018A
:100360009D010F771127222733270034110521051E
:10037000310559F487FD09C0452B462B472B29F041
:10038000805C9F4FAF4FBF4F80788D879E87AF8730
:10039000B88BCE01099605C0CE01019602C086E653
:1003A00090E00E9482026896E8E00C94BE04A8E007
:1003B000B0E0EDEDF1E00C94A60423E029838B017D
:1003C0009C01002737FD0395112722273327402F53
:1003D0000A83611571058105910519F482E089830D
:1003E00035C02EE130E03C832B83442371F061154E
:1003F0007105810520E8920771F100271127980106
:10040000061B170B280B390B02C08B019C01C9017D
:10041000B8010E94CF040197181619062CF00D831D
:100420001E832F83388712C0082E04C0000F111FAF
:10043000221F331F0A94D2F70D831E832F83388720
:100440002EE130E0281B390B3C832B83CE01019633
:100450000E94820204C060E070E080E09FEC289679
:10046000E4E00C94C204ACE0B0E0E9E3F2E00C9408
:10047000A60469877A878B879C87BE016F5F7F4F51
:10048000CE0109960E944C038981823091F182301D
:1004900080F1843041F48A81882331F100E010E05A
:1004A00020E030E829C02B813C8137FD22C02F316C
:1004B00031058CF78EE190E0821B930B0D811E813C
:1004C0002F81388504C036952795179507958A950D
:1004D000D2F78A81882381F0309520951095019577
:1004E0001F4F2F4F3F4F08C00FEF1FEF2FEF3FE77A
:1004F00003C000E010E09801B801C9012C96E4E0C7
:100500000C94C2040F931F93CF93DF93DC011496D6
:100510004D915D916D917C9117971196EC9111978A
:100520008C91823020F460618FEF90E0A6C084301F
:1005300009F49EC0823009F495C04115510561054A
:10054000710509F492C012962D913C9113972238AF
:100550008FEF38070CF058C0C2E8DFEFC21BD30B97
:10056000CA31D1056CF58A019B010C2E04C0369569
:100570002795179507950A94D2F781E090E0A0E0BF
:10058000B0E00C2E04C0880F991FAA1FBB1F0A944D
:10059000D2F70197A109B10984239523A623B72394
:1005A00041E050E060E070E0892B8A2B8B2B19F43E
:1005B00040E050E0BA01402B512B622B732B03C05B
:1005C00040E050E0BA01DB01CA018F779927AA27E2
:1005D000BB2780349105A105B10539F447FF09C057
:1005E000405C5F4F6F4F7F4F04C0415C5F4F6F4F68
:1005F0007F4F81E090E041155105610520E47207CD
:1006000048F580E090E026C0203831058CF5DB010C
:10061000CA018F779927AA27BB2780349105A105A6
:10062000B10539F447FF09C0405C5F4F6F4F7F4F02
:1006300004C0415C5F4F6F4F7F4F77FD04C0C9011D
:1006400081589F4F07C07695679557954795C90183
:1006500080589F4F97E076956795579547959A955F
:10066000D1F70BC080E090E005C080E090E005C0CD
:100670008FEF90E040E050E0BA01982F9695E0FBB4
:1006800097F9362F80FB37F9642F752F832FDF9171
:10069000CF911F910F910895CF92DF92EF92DC01DD
:1006A000FB01CC901196DC90119712968C911297C9
:1006B0003FE7E32EE8226E2DA60170E0982F991FE8
:1006C0009927991F13962C91822F880F892B90E0E0
:1006D00027FB222720F92183009729F54115510591
:1006E0006105710511F482E027C082E89FEF9383D2
:1006F000828327E0440F551F661F771F2A95D1F785
:1007000083E0808309C0440F551F661F771F8281D5
:10071000938101979383828341155105610580E49C
:10072000780788F320C08F3F910579F44115510572
:100730006105710519F484E0808319C0E4FE03C0EB
:1007400081E0808310C010820EC08F57910993837F
:10075000828383E0808387E0440F551F661F771FE5
:100760008A95D1F770644483558366837783EF90CD
:10077000DF90CF9008955D9BFECF8CB908955F9B6D
:10078000FECF8CB190E0089582E88FBD89E18EBDE7
:10079000089560E070E08BEB93E00E94EA04909390
:1007A000F1008093F0006FEB73E080E090E00E9436
:1007B000EA049093EF008093EE0086E880BD1BB8BA
:1007C00083E389B910BC88E18AB90895EF92FF925A
:1007D0000F931F93CF93DF93EB01BC01882777FD25
:1007E0008095982F0E94D7019B01AC0160E070E0DA
:1007F00080E89FE30E94340120E034E244E759E4BA
:100800000E944F007B018C017F2D802F912F0E9431
:10081000330277BD66BDBE01882777FD8095982F8E
:100820000E94D70120E030E048EC52E40E943401FD
:100830002E2D3F2D402F512F0E944F000E9433023A
:100840007BBD6ABDDF91CF911F910F91FF90EF901B
:100850000895CF93DF9300D000D0CDB7DEB780E20C
:1008600081BB0E94C4030E94C9038EE690E09F935F
:100870008F930E943505EE24E394F12CEC0EFD1EBF
:10088000FF92EF928E010D5F1F4F1F930F9384E92C
:1008900090E09F938F930E944C0569817A818B81B0
:1008A0009C810E94E6032AB53BB586B597B53F9378
:1008B0002F939F938F938AE990E09F938F930E9449
:1008C00035050FB6F894DEBF0FBECDBF9FECC92E25
:1008D00090E0D92EBE2CAF2C902E812E24E9E22E52
:1008E00020E0F22E0BE910E0DF92CF920E94350556
:1008F000AF92BF928F929F92FF92EF920E944C050F
:1009000069817A818B819C810E94E6032AB53BB57F
:1009100086B597B53F932F939F938F931F930F9314
:100920000E9435050FB6F894DEBF0FBECDBFDCCFF9
:100930002F923F924F925F926F927F928F929F92EF
:10094000AF92BF92CF92DF92EF92FF920F931F93DD
:10095000CF93DF93CDB7DEB7CA1BDB0B0FB6F8948E
:10096000DEBF0FBECDBF09942A88398848885F84CE
:100970006E847D848C849B84AA84B984C884DF803F
:10098000EE80FD800C811B81AA81B981CE0FD11D23
:100990000FB6F894DEBF0FBECDBFED0108950E94E3
:1009A000D80484FF0895CB010E94D804805F089585
:1009B000AA27992329F4A85F982B11F480E10895C0
:1009C000903118F4AD5F9295A395990FE8F78A2FAF
:1009D000992708950F931F93CF93DF93EC018B0119
:1009E000009731F46115710519F4E0E0F0E037C0CB
:1009F0006EE070E081E090E00E941B0AFC0100972D
:100A0000A1F380E883830115110571F01387028734
:100A100081E883838091EE009091EF00892B21F48F
:100A2000F093EF00E093EE002097C9F0D187C087E4
:100A30008381826083838091F0009091F100892B03
:100A400071F4F093F100E093F0008091F200909146
:100A5000F300892B21F4F093F300E093F200CF012F
:100A6000DF91CF911F910F910895A2E0B0E0EBE3E9
:100A7000F5E00C94A804FE01379661917191FA8318
:100A8000E983AF018091F0009091F1000E9463052D
:100A90002296E2E00C94C404A2E0B0E0E2E5F5E0C6
:100AA0000C94A804FE01379661917191FA83E98351
:100AB000AF018091EE009091EF000E94ED08229628
:100AC000E2E00C94C404ACE0B0E0E9E6F5E00C949C
:100AD00098047C016B018A01FC01178216828381D4
:100AE00081FFC7C188248394912C8C0E9D1EF70131
:100AF0009381F60193FD859193FF81916F01882386
:100B000009F4B3C1853239F493FD859193FF819146
:100B10006F01853229F4B70190E00E94E00BE7CF26
:100B2000712C312C20E02032A8F48B3261F028F4B3
:100B3000803251F0833271F40BC08D3239F0803342
:100B400049F4216028C02260246025C0286023C0A9
:100B5000206121C027FD27C0382F30533A3078F468
:100B600026FF06C0FAE07F9E300D1124732E13C0BD
:100B70008AE0389E300D1124332E20620CC08E3254
:100B800021F426FD72C1206406C08C3611F4206861
:100B900002C0883641F4F60193FD859193FF81915F
:100BA0006F018111C0CF982F9554933018F0905257
:100BB000933028F40C5F1F4FFFE3F9830DC0833699
:100BC00031F0833771F0833509F05EC023C0F8013E
:100BD000808189830E5F1F4F66246394712C5401BA
:100BE00015C02801F2E04F0E511CF801A080B18021
:100BF00026FF03C0672D70E002C06FEF7FEFC501D5
:100C00002C870E94950B3C0182012C856FE7262ED4
:100C1000222218C02801F2E04F0E511CF801A080DA
:100C2000B18026FF03C0672D70E002C06FEF7FEF39
:100C3000C5012C870E94830B3C012C8550E8252E92
:100C4000222A820123FC1CC006C0B70180E290E08A
:100C50000E94E00B3A94832D90E068167906A8F381
:100C60000FC0F50127FC859127FE81915F01B70137
:100C700090E00E94E00B31103A94F1E06F1A710895
:100C80006114710471F7EEC0843611F0893641F5B4
:100C9000F80127FF07C060817181828193810C5F19
:100CA0001F4F08C060817181882777FD8095982F3C
:100CB0000E5F1F4F4FE6642E622297FF09C090958A
:100CC0008095709561957F4F8F4F9F4FF0E86F2A09
:100CD0002AE030E0A4010E94270CA82EA81844C0E6
:100CE000853731F43FEEB32EB2222AE030E024C043
:100CF00099EFB92EB2228F36B9F020F4883509F079
:100D0000B4C00DC0803721F0883709F0AEC002C0F2
:100D100020E1B22AB4FE0BC084E0B82A08C024FF48
:100D200009C0E6E0BE2A06C028E030E005C020E1A8
:100D300030E002C020E132E0F801B7FE07C0608178
:100D40007181828193810C5F1F4F06C06081718128
:100D500080E090E00E5F1F4FA4010E94270CA82E98
:100D6000A8188FE7682E6B2066FE0BC0362D3E7FDD
:100D7000A71450F464FE0AC062FC08C0362D3E7E03
:100D800005C0BA2C362D03C0BA2C01C0B72C34FFD5
:100D90000DC0FE01EA0DF11D8081803311F4397E12
:100DA00009C032FF06C0B394B39404C0832F867881
:100DB00009F0B39433FD14C030FF0FC07A2CB31484
:100DC00060F4730C7B18B32C08C0B70180E290E08C
:100DD0003C870E94E00BB3943C85B314B0F304C08D
:100DE000B31410F43B1801C0312C34FF12C0B7010A
:100DF00080E390E03C870E94E00B3C8532FF1EC000
:100E000031FF03C088E590E002C088E790E0B701B9
:100E10000CC0832F867891F031FD02C080E201C0C2
:100E20008BE237FD8DE2B70190E00E94E00B06C037
:100E3000B70180E390E00E94E00B7A94A714C0F31E
:100E4000AA94F401EA0DF11DB701808190E00E949F
:100E5000E00BA110F5CF06C0B70180E290E00E9440
:100E6000E00B3A943110F8CF42CEF701268137815A
:100E700002C02FEF3FEFC9012C96E2E10C94B404BD
:100E800020FD09C0FC0123FD05C022FF02C07383C1
:100E90006283518340830895CF92DF92EF92FF9255
:100EA0000F931F9344FD10C046FD10C0DB01FC01F1
:100EB000AA0FBB1FEE1FFF1F1094D1F76A0F7B1FF5
:100EC0008E1F9F1F31E003C033E001C034E0660F86
:100ED000771F881F991F3150D1F76B017C01C20E1B
:100EE000D11CE11CF11C97018601B601C9011F91BB
:100EF0000F91FF90EF90DF90CF9008950F931F9385
:100F0000CF93DF938C01C8010E94A00BEC0197FDE9
:100F100008C00E94700B892BB1F7B801CE010E9466
:100F20000C0CCE01DF91CF911F910F9108958F92FC
:100F30009F92AF92CF92DF92EF92FF920F931F9307
:100F4000CF93DF93EC01A62E4A01022F0E94A00B43
:100F5000FC01FF27EB32F10519F0BD9751F4006851
:100F6000AA9411F480E063C0CE010E94A00B97FD0B
:100F7000F9CF102F1D7F302F3073E1F48033D1F47F
:100F8000AA9409F440C0CE010E94A00B97FD3BC07B
:100F9000883711F0883549F41264AA94A1F1CE0182
:100FA0000E94A00B97FF06C02EC006FF02C0126071
:100FB00001C01261C12CD12C7601282F205328307A
:100FC00080F014FF04C0BE010E940C0C19C02A302E
:100FD00040F016FFF8CF2F7D322F3151363098F781
:100FE0002750412FC701B6010E944C076B017C01BD
:100FF0001260AA9459F0CE010E94A00B97FFDDCF9A
:1010000011FD04C0AFCFC12CD12C760117FF08C051
:10101000F094E094D094C094C11CD11CE11CF11C4C
:10102000212FB701A601C4010E94400781E0DF9192
:10103000CF911F910F91FF90EF90DF90CF90AF90E5
:101040009F908F9008956F927F929F92AF92BF92E0
:10105000CF92DF92EF92FF920F931F93CF93DF9384
:10106000CDB7DEB7A1970FB6F894DEBF0FBECDBFE8
:101070006C017A018901FE01319680E2DF011D9247
:101080008A95E9F7D60113969C9020E030E0A12CD8
:10109000A0E0B12CCF0141E050E0F80193FC759144
:1010A00093FE71918F01711103C000E010E080C0C8
:1010B0007E3519F42115310559F1EB2DF0E0E217D9
:1010C000F3073CF47D3569F17D3219F4AA2319F157
:1010D00003C0A11101C0A72EE72FE695E695E6957E
:1010E0003C016E0E711CF301A72FA7703A0102C0DC
:1010F000660C771CAA95E2F7D301B081BA2BB083B6
:101100007A1559F07A1510F47F5FE6CF7150E4CF6D
:10111000BB24B39403C0A1E001C0A0E02F5F3F4F08
:10112000BCCFAA2319F08E8180628E83B11003C0D8
:10113000BB24B3940BC0FE013196CE018196208171
:1011400020952193E817F907D1F7F2CFC60169A3DB
:101150000E94A00B69A197FD24C0282F26952695F3
:101160002695E1E0F0E0EC0FFD1FE20FF11D20817C
:1011700030E0AC014770552702C0359527954A9558
:10118000E2F720FD04C0B6010E940C0C0AC0E11475
:10119000F10419F0D7018D937D016150B12CB1F6A6
:1011A00002C0B11082CFE114F10411F0F7011082F6
:1011B000C801A1960FB6F894DEBF0FBECDBFDF9178
:1011C000CF911F910F91FF90EF90DF90CF90BF9044
:1011D000AF909F907F906F9008954F925F927F9213
:1011E0008F929F92AF92BF92CF92DF92EF92FF9237
:1011F0000F931F93CF93DF931F92CDB7DEB78C0170
:101200002B015A01FC0117821682812CF0C08E2D11
:1012100090E00E94700B892B21F0C8010E947E078C
:10122000E6C0F5E2EF120AC0F201F3FC3591F3FEDD
:1012300031912F01353271F455E2E52EC8010E943B
:10124000A00B97FDDFC0E81609F4D1C0B8010E94D9
:101250000C0CDAC03A3241F4F3FC3591F3FE3191D3
:101260002F019924939401C0912C712C10C0F2E0AD
:101270009F2A672D70E080E090E040E20E944C07DA
:10128000762EF201F3FC3591F3FE31912F01232FDD
:1012900020532A3060F391FE03C0711003C0B4C024
:1012A00077247A94383619F03C3699F40AC0F20162
:1012B000F3FC3591F3FE31912F01383651F4F8E00B
:1012C0009F2A84E0982AF201F3FC3591F3FE3191D4
:1012D0002F01332309F498C0632F70E084E590E078
:1012E00039830E94780B3981892B09F48DC090FCD9
:1012F00007C0F501E080F18082E0A80EB11C02C0B9
:10130000E12CF12C3E3651F4F8014681578160E022
:1013100070E0292DC7010E94400769C0333691F45F
:1013200091FC02C077247394C8010E94A00B97FD22
:1013300069C0E114F10419F0F70181937F017A94F7
:1013400099F753C03B3559F49201A701672DC801A5
:101350000E9423082C01009709F047C041C0C80132
:1013600039830E947E07398197FD4CC03F3659F181
:1013700028F4343629F1393649F52AC0333719F0C3
:10138000353721F51DC0C8010E94A00B6C0197FDE7
:1013900011C00E94700B892B29F0B801C6010E9470
:1013A0000C0C08C0E114F10419F0F701C1927F019F
:1013B0007A9449F7E114F104C1F0F701108215C0E5
:1013C000F0E29F2A05C080E1982A02C090E4992AA1
:1013D000292DA701672DC8010E949707811105C01B
:1013E000F8018381807371F40FC090FE8394F8013B
:1013F000F380F201F3FCE590F3FEE1902F01E110A0
:1014000006CF02C0882019F0282D30E002C02FEF4F
:101410003FEFC9010F90DF91CF911F910F91FF9086
:10142000EF90DF90CF90BF90AF909F908F907F9084
:101430005F904F9008950F931F93CF93DF93689F12
:101440008001699F100D789F100D1124C8010E9422
:10145000390AC82FD92F209731F0A80160E070E039
:101460008C2F0E948E0BCE01DF91CF911F910F9197
:1014700008950F931F93CF93DF938230910510F45B
:1014800082E090E0E091F600F091F70020E030E09B
:10149000C0E0D0E023C04081518148175907A8F02F
:1014A0004817590761F482819381209719F09B8333
:1014B0008A832EC09093F7008093F60029C02115EF
:1014C000310529F04217530710F0A90102C0BE01EF
:1014D000DF0102811381EF019A01F8013097D9F6FB
:1014E0002115310509F1281B390B2430310590F401
:1014F00012968D919C9113976115710521F0FB0156
:101500009383828304C09093F7008093F600FD01DB
:10151000329644C0FD01E20FF31F81939193225054
:1015200031092D933C933AC02091F4003091F5009D
:10153000232B41F420916200309163003093F50039
:101540002093F40020916000309161002115310555
:1015500041F42DB73EB74091640050916500241BC3
:10156000350BE091F400F091F500E217F307A0F4D9
:101570002E1B3F0B2817390778F0AC014E5F5F4FE9
:101580002417350748F04E0F5F1F5093F500409326
:10159000F4008193919302C0E0E0F0E0CF01DF918D
:1015A000CF911F910F910895EF92FF920F931F9388
:1015B000CF93DF93009709F48EC0DC011297139646
:1015C0001C921E921297E090F600F090F700E11442
:1015D000F10489F42D913C911197280F391F8091C6
:1015E000F4009091F5008217930789F5B093F50008
:1015F000A093F40070C0E70120E030E001C0EA01F0
:10160000CA17DB0738F44A815B819E0141155105F9
:10161000B1F722C0AC0142505109FA01D383C28311
:1016200000811181BC01600F711F6C177D0761F48F
:1016300068817981600F711F6E5F7F4F7183608356
:101640006A817B81738362832115310529F4B0930C
:10165000F700A093F6003FC0F901B383A283E9012C
:1016600049915991C40FD51FAC17BD0771F4DC0126
:101670009E918E91840F951F02969183808312967E
:101680008D919C91139793838283A0E0B0E002C078
:10169000D7017C01F701828193810097C9F7C701C7
:1016A000029620813181820F931F2091F4003091A6
:1016B000F5002817390779F4109729F41092F700EC
:1016C0001092F60004C013961C921E921297F0928C
:1016D000F500E092F400CDB7DEB7E6E00C94C0046C
:1016E000911113C1803219F089508550D0F70895B7
:1016F000FC010590061621F00020D9F7C0010895DD
:101700003197CF010895FC010590615070400110A0
:10171000D8F7809590958E0F9F1F0895DC0101C02A
:101720006D9341505040E0F70895FC0161507040C6
:1017300001900110D8F7809590958E0F9F1F089506
:10174000CF93DF93EC013B8130FF34C036FF0AC0FA
:101750003F7B3B838E819F8101969F838E832A816D
:1017600030E02AC032FF0FC0E881F98180819927DB
:1017700087FD9095009719F430623B831BC031962A
:10178000F983E8830EC0EA85FB85099597FF09C0B8
:101790002B81019611F480E101C080E2822B8B83C2
:1017A00009C02E813F812F5F3F4F3F832E839C01D5
:1017B000332702C02FEF3FEFC901DF91CF9108958A
:1017C0000F931F93CF93DF938C01EB018B8181FDEE
:1017D00003C00FEF1FEF1AC082FF0DC02E813F81A3
:1017E0008C819D812817390764F4E881F981019380
:1017F000F983E88306C0E885F985802F0995892B50
:1018000041F78E819F8101969F838E83C801DF916E
:10181000CF911F910F910895FB01238120FF13C0E9
:1018200026FD11C08F3F3FEF930769F082832F7D24
:101830002064238326813781215031093783268311
:101840009C01332702C02FEF3FEFC9010895FA0131
:10185000AA27283051F1203181F1E8946F936E7FEF
:101860006E5F7F4F8F4F9F4FAF4FB1E03ED0B4E0E0
:101870003CD0670F781F891F9A1FA11D680F791F21
:101880008A1F911DA11D6A0F711D811D911DA11D32
:1018900020D009F468943F912AE0269F1124301942
:1018A000305D3193DEF6CF010895462F4770405DDD
:1018B0004193B3E00FD0C9F7F6CF462F4F70405D8C
:1018C0004A3318F0495D31FD4052419302D0A9F7E7
:1018D000EACFB4E0A6959795879577956795BA95E1
:1018E000C9F700976105710508959B01AC010A2EA7
:1018F00006945795479537952795BA95C9F7620F7E
:10190000731F841F951FA01D089599278827089588
:04191000F894FFCF79
:101914000000F800200000000000000000000A2081
:10192400456E74657220696E697469616C205B48E8
:101934007A5D205B44757479204379636C65252551
:101944005D3A20002575202575000A43757272657D
:101954006E7420506572696F64284943523129209E
:101964005B75535D3A20257520092054696D652007
:10197400486967685B75535D3A202575200A000A3B
:101984000A20456E746572205B487A5D205B44755D
:0E1994007479204379636C6525255D3A200047
:00000001FF
