:100000000C942A000C943C000C943C000C943C0092
:100010000C943C000C943C000C943C000C943C0070
:100020000C9450000C943C000C943C000C943C004C
:100030000C943C000C943C000C943C000C943C0050
:100040000C943C000C943C000C943C000C943C0040
:100050000C943C0011241FBECFE5D4E0DEBFCDBF21
:1000600010E0A0E6B0E001C01D92A236B107E1F7B2
:100070000E9444000C9474000C9400001FBC81E0AA
:100080008EBD84E089BF08951092610010926000D7
:100090008FEF87BB8AEA88BB0E943E007894FFCF2F
:1000A0001F920F920FB60F9211248F939F938091FE
:1000B00060009091610001969093610080936000D0
:1000C00080916000909161008E973CF010926100E9
:1000D0001092600088B3809588BB9F918F910F909C
:0C00E0000FBE0F901F901895F894FFCFF2
:00000001FF
